{
  "_format": "hh-sol-artifact-1",
  "contractName": "MACI",
  "sourceName": "contracts/MACI.sol",
  "abi": [
    {
      "inputs": [
        {
          "internalType": "contract IPollFactory",
          "name": "_pollFactory",
          "type": "address"
        },
        {
          "internalType": "contract IMessageProcessorFactory",
          "name": "_messageProcessorFactory",
          "type": "address"
        },
        {
          "internalType": "contract ITallyFactory",
          "name": "_tallyFactory",
          "type": "address"
        },
        {
          "internalType": "contract SignUpGatekeeper",
          "name": "_signUpGatekeeper",
          "type": "address"
        },
        {
          "internalType": "contract InitialVoiceCreditProxy",
          "name": "_initialVoiceCreditProxy",
          "type": "address"
        },
        {
          "internalType": "uint8",
          "name": "_stateTreeDepth",
          "type": "uint8"
        },
        {
          "internalType": "uint256[5]",
          "name": "_emptyBallotRoots",
          "type": "uint256[5]"
        }
      ],
      "stateMutability": "payable",
      "type": "constructor"
    },
    {
      "inputs": [],
      "name": "DefaultZeroBadIndex",
      "type": "error"
    },
    {
      "inputs": [],
      "name": "DepthTooLarge",
      "type": "error"
    },
    {
      "inputs": [],
      "name": "InvalidMessage",
      "type": "error"
    },
    {
      "inputs": [],
      "name": "InvalidPubKey",
      "type": "error"
    },
    {
      "inputs": [],
      "name": "NumberOfLeavesCannotBeZero",
      "type": "error"
    },
    {
      "inputs": [
        {
          "internalType": "uint256",
          "name": "pollId",
          "type": "uint256"
        }
      ],
      "name": "PollDoesNotExist",
      "type": "error"
    },
    {
      "inputs": [],
      "name": "PoseidonHashLibrariesNotLinked",
      "type": "error"
    },
    {
      "inputs": [],
      "name": "TooManySignups",
      "type": "error"
    },
    {
      "anonymous": false,
      "inputs": [
        {
          "indexed": false,
          "internalType": "uint256",
          "name": "_pollId",
          "type": "uint256"
        },
        {
          "indexed": true,
          "internalType": "uint256",
          "name": "_coordinatorPubKeyX",
          "type": "uint256"
        },
        {
          "indexed": true,
          "internalType": "uint256",
          "name": "_coordinatorPubKeyY",
          "type": "uint256"
        },
        {
          "indexed": false,
          "internalType": "enum DomainObjs.Mode",
          "name": "_mode",
          "type": "uint8"
        }
      ],
      "name": "DeployPoll",
      "type": "event"
    },
    {
      "anonymous": false,
      "inputs": [
        {
          "indexed": false,
          "internalType": "uint256",
          "name": "_stateIndex",
          "type": "uint256"
        },
        {
          "indexed": true,
          "internalType": "uint256",
          "name": "_userPubKeyX",
          "type": "uint256"
        },
        {
          "indexed": true,
          "internalType": "uint256",
          "name": "_userPubKeyY",
          "type": "uint256"
        },
        {
          "indexed": false,
          "internalType": "uint256",
          "name": "_voiceCreditBalance",
          "type": "uint256"
        },
        {
          "indexed": false,
          "internalType": "uint256",
          "name": "_timestamp",
          "type": "uint256"
        }
      ],
      "name": "SignUp",
      "type": "event"
    },
    {
      "inputs": [],
      "name": "MESSAGE_DATA_LENGTH",
      "outputs": [
        {
          "internalType": "uint8",
          "name": "",
          "type": "uint8"
        }
      ],
      "stateMutability": "view",
      "type": "function"
    },
    {
      "inputs": [
        {
          "internalType": "uint256",
          "name": "_duration",
          "type": "uint256"
        },
        {
          "components": [
            {
              "internalType": "uint8",
              "name": "intStateTreeDepth",
              "type": "uint8"
            },
            {
              "internalType": "uint8",
              "name": "messageTreeSubDepth",
              "type": "uint8"
            },
            {
              "internalType": "uint8",
              "name": "messageTreeDepth",
              "type": "uint8"
            },
            {
              "internalType": "uint8",
              "name": "voteOptionTreeDepth",
              "type": "uint8"
            }
          ],
          "internalType": "struct Params.TreeDepths",
          "name": "_treeDepths",
          "type": "tuple"
        },
        {
          "components": [
            {
              "internalType": "uint256",
              "name": "x",
              "type": "uint256"
            },
            {
              "internalType": "uint256",
              "name": "y",
              "type": "uint256"
            }
          ],
          "internalType": "struct DomainObjs.PubKey",
          "name": "_coordinatorPubKey",
          "type": "tuple"
        },
        {
          "internalType": "address",
          "name": "_verifier",
          "type": "address"
        },
        {
          "internalType": "address",
          "name": "_vkRegistry",
          "type": "address"
        },
        {
          "internalType": "enum DomainObjs.Mode",
          "name": "_mode",
          "type": "uint8"
        }
      ],
      "name": "deployPoll",
      "outputs": [],
      "stateMutability": "nonpayable",
      "type": "function"
    },
    {
      "inputs": [
        {
          "internalType": "uint256",
          "name": "",
          "type": "uint256"
        }
      ],
      "name": "emptyBallotRoots",
      "outputs": [
        {
          "internalType": "uint256",
          "name": "",
          "type": "uint256"
        }
      ],
      "stateMutability": "view",
      "type": "function"
    },
    {
      "inputs": [
        {
          "internalType": "uint256",
          "name": "_pollId",
          "type": "uint256"
        }
      ],
      "name": "getPoll",
      "outputs": [
        {
          "components": [
            {
              "internalType": "address",
              "name": "poll",
              "type": "address"
            },
            {
              "internalType": "address",
              "name": "messageProcessor",
              "type": "address"
            },
            {
              "internalType": "address",
              "name": "tally",
              "type": "address"
            }
          ],
          "internalType": "struct MACI.PollContracts",
          "name": "pollContracts",
          "type": "tuple"
        }
      ],
      "stateMutability": "view",
      "type": "function"
    },
    {
      "inputs": [],
      "name": "getStateTreeRoot",
      "outputs": [
        {
          "internalType": "uint256",
          "name": "root",
          "type": "uint256"
        }
      ],
      "stateMutability": "view",
      "type": "function"
    },
    {
      "inputs": [
        {
          "internalType": "uint256[2]",
          "name": "array",
          "type": "uint256[2]"
        }
      ],
      "name": "hash2",
      "outputs": [
        {
          "internalType": "uint256",
          "name": "result",
          "type": "uint256"
        }
      ],
      "stateMutability": "pure",
      "type": "function"
    },
    {
      "inputs": [
        {
          "internalType": "uint256[3]",
          "name": "array",
          "type": "uint256[3]"
        }
      ],
      "name": "hash3",
      "outputs": [
        {
          "internalType": "uint256",
          "name": "result",
          "type": "uint256"
        }
      ],
      "stateMutability": "pure",
      "type": "function"
    },
    {
      "inputs": [
        {
          "internalType": "uint256[4]",
          "name": "array",
          "type": "uint256[4]"
        }
      ],
      "name": "hash4",
      "outputs": [
        {
          "internalType": "uint256",
          "name": "result",
          "type": "uint256"
        }
      ],
      "stateMutability": "pure",
      "type": "function"
    },
    {
      "inputs": [
        {
          "internalType": "uint256[5]",
          "name": "array",
          "type": "uint256[5]"
        }
      ],
      "name": "hash5",
      "outputs": [
        {
          "internalType": "uint256",
          "name": "result",
          "type": "uint256"
        }
      ],
      "stateMutability": "pure",
      "type": "function"
    },
    {
      "inputs": [
        {
          "internalType": "uint256",
          "name": "left",
          "type": "uint256"
        },
        {
          "internalType": "uint256",
          "name": "right",
          "type": "uint256"
        }
      ],
      "name": "hashLeftRight",
      "outputs": [
        {
          "internalType": "uint256",
          "name": "result",
          "type": "uint256"
        }
      ],
      "stateMutability": "pure",
      "type": "function"
    },
    {
      "inputs": [
        {
          "components": [
            {
              "internalType": "uint256[10]",
              "name": "data",
              "type": "uint256[10]"
            }
          ],
          "internalType": "struct DomainObjs.Message",
          "name": "_message",
          "type": "tuple"
        },
        {
          "components": [
            {
              "internalType": "uint256",
              "name": "x",
              "type": "uint256"
            },
            {
              "internalType": "uint256",
              "name": "y",
              "type": "uint256"
            }
          ],
          "internalType": "struct DomainObjs.PubKey",
          "name": "_encPubKey",
          "type": "tuple"
        }
      ],
      "name": "hashMessageAndEncPubKey",
      "outputs": [
        {
          "internalType": "uint256",
          "name": "msgHash",
          "type": "uint256"
        }
      ],
      "stateMutability": "pure",
      "type": "function"
    },
    {
      "inputs": [
        {
          "components": [
            {
              "components": [
                {
                  "internalType": "uint256",
                  "name": "x",
                  "type": "uint256"
                },
                {
                  "internalType": "uint256",
                  "name": "y",
                  "type": "uint256"
                }
              ],
              "internalType": "struct DomainObjs.PubKey",
              "name": "pubKey",
              "type": "tuple"
            },
            {
              "internalType": "uint256",
              "name": "voiceCreditBalance",
              "type": "uint256"
            },
            {
              "internalType": "uint256",
              "name": "timestamp",
              "type": "uint256"
            }
          ],
          "internalType": "struct DomainObjs.StateLeaf",
          "name": "_stateLeaf",
          "type": "tuple"
        }
      ],
      "name": "hashStateLeaf",
      "outputs": [
        {
          "internalType": "uint256",
          "name": "ciphertext",
          "type": "uint256"
        }
      ],
      "stateMutability": "pure",
      "type": "function"
    },
    {
      "inputs": [],
      "name": "initialVoiceCreditProxy",
      "outputs": [
        {
          "internalType": "contract InitialVoiceCreditProxy",
          "name": "",
          "type": "address"
        }
      ],
      "stateMutability": "view",
      "type": "function"
    },
    {
      "inputs": [],
      "name": "lazyIMTData",
      "outputs": [
        {
          "internalType": "uint40",
          "name": "maxIndex",
          "type": "uint40"
        },
        {
          "internalType": "uint40",
          "name": "numberOfLeaves",
          "type": "uint40"
        }
      ],
      "stateMutability": "view",
      "type": "function"
    },
    {
      "inputs": [],
      "name": "maxSignups",
      "outputs": [
        {
          "internalType": "uint256",
          "name": "",
          "type": "uint256"
        }
      ],
      "stateMutability": "view",
      "type": "function"
    },
    {
      "inputs": [],
      "name": "messageProcessorFactory",
      "outputs": [
        {
          "internalType": "contract IMessageProcessorFactory",
          "name": "",
          "type": "address"
        }
      ],
      "stateMutability": "view",
      "type": "function"
    },
    {
      "inputs": [],
      "name": "nextPollId",
      "outputs": [
        {
          "internalType": "uint256",
          "name": "",
          "type": "uint256"
        }
      ],
      "stateMutability": "view",
      "type": "function"
    },
    {
      "inputs": [],
      "name": "numSignUps",
      "outputs": [
        {
          "internalType": "uint256",
          "name": "signUps",
          "type": "uint256"
        }
      ],
      "stateMutability": "view",
      "type": "function"
    },
    {
      "inputs": [
        {
          "internalType": "uint256[2]",
          "name": "dataToPad",
          "type": "uint256[2]"
        }
      ],
      "name": "padAndHashMessage",
      "outputs": [
        {
          "components": [
            {
              "internalType": "uint256[10]",
              "name": "data",
              "type": "uint256[10]"
            }
          ],
          "internalType": "struct DomainObjs.Message",
          "name": "message",
          "type": "tuple"
        },
        {
          "components": [
            {
              "internalType": "uint256",
              "name": "x",
              "type": "uint256"
            },
            {
              "internalType": "uint256",
              "name": "y",
              "type": "uint256"
            }
          ],
          "internalType": "struct DomainObjs.PubKey",
          "name": "padKey",
          "type": "tuple"
        },
        {
          "internalType": "uint256",
          "name": "msgHash",
          "type": "uint256"
        }
      ],
      "stateMutability": "pure",
      "type": "function"
    },
    {
      "inputs": [],
      "name": "pollFactory",
      "outputs": [
        {
          "internalType": "contract IPollFactory",
          "name": "",
          "type": "address"
        }
      ],
      "stateMutability": "view",
      "type": "function"
    },
    {
      "inputs": [
        {
          "internalType": "uint256",
          "name": "",
          "type": "uint256"
        }
      ],
      "name": "polls",
      "outputs": [
        {
          "internalType": "address",
          "name": "poll",
          "type": "address"
        },
        {
          "internalType": "address",
          "name": "messageProcessor",
          "type": "address"
        },
        {
          "internalType": "address",
          "name": "tally",
          "type": "address"
        }
      ],
      "stateMutability": "view",
      "type": "function"
    },
    {
      "inputs": [
        {
          "internalType": "uint256[]",
          "name": "array",
          "type": "uint256[]"
        }
      ],
      "name": "sha256Hash",
      "outputs": [
        {
          "internalType": "uint256",
          "name": "result",
          "type": "uint256"
        }
      ],
      "stateMutability": "pure",
      "type": "function"
    },
    {
      "inputs": [
        {
          "components": [
            {
              "internalType": "uint256",
              "name": "x",
              "type": "uint256"
            },
            {
              "internalType": "uint256",
              "name": "y",
              "type": "uint256"
            }
          ],
          "internalType": "struct DomainObjs.PubKey",
          "name": "_pubKey",
          "type": "tuple"
        },
        {
          "internalType": "bytes",
          "name": "_signUpGatekeeperData",
          "type": "bytes"
        },
        {
          "internalType": "bytes",
          "name": "_initialVoiceCreditProxyData",
          "type": "bytes"
        }
      ],
      "name": "signUp",
      "outputs": [],
      "stateMutability": "nonpayable",
      "type": "function"
    },
    {
      "inputs": [],
      "name": "signUpGatekeeper",
      "outputs": [
        {
          "internalType": "contract SignUpGatekeeper",
          "name": "",
          "type": "address"
        }
      ],
      "stateMutability": "view",
      "type": "function"
    },
    {
      "inputs": [],
      "name": "stateTreeDepth",
      "outputs": [
        {
          "internalType": "uint8",
          "name": "",
          "type": "uint8"
        }
      ],
      "stateMutability": "view",
      "type": "function"
    },
    {
      "inputs": [],
      "name": "tallyFactory",
      "outputs": [
        {
          "internalType": "contract ITallyFactory",
          "name": "",
          "type": "address"
        }
      ],
      "stateMutability": "view",
      "type": "function"
    }
  ],
  "bytecode": "0x61016060405260405162002eab38038062002eab8339810160408190526200002791620003f5565b62000034600783620000ff565b6200006160077f0ef71f46e11a513c599eed9dd03576c33439bcfb1cee155316f90541e41649ba62000155565b6001600160a01b0380881660c05286811660e052858116610100528481166101205283166101405260ff821660808190526200009f90600262000618565b60a052620000b160008260056200036c565b506040805180820190915260018082526020820152620000d190620002b6565b600003620000f257604051633d7ba68560e21b815260040160405180910390fd5b50505050505050620006d2565b60208160ff1611156200012557604051633e104c7760e01b815260040160405180910390fd5b62000138600160ff831681901b62000626565b82546001600160501b03191664ffffffffff919091161790915550565b815465010000000000900464ffffffffff16620001748160016200063c565b835464ffffffffff91909116650100000000000264ffffffffff60281b199091161783558160005b81600186016000620001af84876200033c565b64ffffffffff1681526020810191909152604001600020556001831615620002af576000620001eb82620001e560018762000664565b6200033c565b60408051808201825264ffffffffff8316600090815260018a01602090815290839020548252810186905290516314d2f97b60e11b815291925073__$6574937f64fc1d7710ec0e28b7a36713bb$__916329a5f2f6916200024f9160040162000685565b602060405180830381865af41580156200026d573d6000803e3d6000fd5b505050506040513d601f19601f82011682018060405250810190620002939190620006b8565b647fffffffff600195861c16949093509190910190506200019c565b5050505050565b6040516314d2f97b60e11b815260009073__$6574937f64fc1d7710ec0e28b7a36713bb$__906329a5f2f690620002f290859060040162000685565b602060405180830381865af415801562000310573d6000803e3d6000fd5b505050506040513d601f19601f82011682018060405250810190620003369190620006b8565b92915050565b6000816200035960ff851664ff00000000602087901b1662000664565b6200036591906200063c565b9392505050565b82600581019282156200039d579160200282015b828111156200039d57825182559160200191906001019062000380565b50620003ab929150620003af565b5090565b5b80821115620003ab5760008155600101620003b0565b6001600160a01b0381168114620003dc57600080fd5b50565b634e487b7160e01b600052604160045260246000fd5b600080600080600080600061016080898b0312156200041357600080fd5b88516200042081620003c6565b809850506020808a01516200043581620003c6565b60408b01519098506200044881620003c6565b60608b01519097506200045b81620003c6565b60808b01519096506200046e81620003c6565b60a08b015190955060ff811681146200048657600080fd5b935060df8a018b136200049857600080fd5b60405160a081016001600160401b0381118282101715620004bd57620004bd620003df565b604052918a0191808c841115620004d357600080fd5b60c08c015b84811015620004f15780518252908301908301620004d8565b505080935050505092959891949750929550565b634e487b7160e01b600052601160045260246000fd5b600181815b808511156200055c57816000190482111562000540576200054062000505565b808516156200054e57918102915b93841c939080029062000520565b509250929050565b600082620005755750600162000336565b81620005845750600062000336565b81600181146200059d5760028114620005a857620005c8565b600191505062000336565b60ff841115620005bc57620005bc62000505565b50506001821b62000336565b5060208310610133831016604e8410600b8410161715620005ed575081810a62000336565b620005f983836200051b565b806000190482111562000610576200061062000505565b029392505050565b600062000365838362000564565b8181038181111562000336576200033662000505565b64ffffffffff8181168382160190808211156200065d576200065d62000505565b5092915050565b64ffffffffff8281168282160390808211156200065d576200065d62000505565b60408101818360005b6002811015620006af5781518352602092830192909101906001016200068e565b50505092915050565b600060208284031215620006cb57600080fd5b5051919050565b60805160a05160c05160e05161010051610120516101405161275462000757600039600081816103b501526106900152600081816101dc015261060e0152600081816103010152610ac70152600081816101980152610a2c015260008181610286015261097c0152600081816104a2015261057c0152600061032801526127546000f3fe608060405234801561001057600080fd5b506004361061018e5760003560e01c8063652c76e4116100de578063aab4a67011610097578063b87802c811610071578063b87802c814610477578063bea140b31461048a578063df82635a1461049d578063edbfe83f146104c457600080fd5b8063aab4a670146103b0578063ac2f0074146103d7578063b68687201461043d57600080fd5b8063652c76e414610323578063683f3dc31461035c5780636b4575e2146103645780637d0a81c8146103775780638a2a3dfb1461038a5780639cfced971461039d57600080fd5b8063343393b51161014b57806358bfc3791161012557806358bfc379146102c35780635bb93995146102d657806362a361bb146102e957806362b31f1e146102fc57600080fd5b8063343393b5146102815780633dfb88b2146102a8578063423f3e19146102bb57600080fd5b8063055575eb14610193578063079410db146101d7578063122db153146101fe5780631a8cbcaa1461021e5780632b786571146102635780633364120a1461026c575b600080fd5b6101ba7f000000000000000000000000000000000000000000000000000000000000000081565b6040516001600160a01b0390911681526020015b60405180910390f35b6101ba7f000000000000000000000000000000000000000000000000000000000000000081565b600754600160281b900464ffffffffff165b6040519081526020016101ce565b61023161022c366004611cab565b6104e6565b6040805182516001600160a01b03908116825260208085015182169083015292820151909216908201526060016101ce565b61021060055481565b61027f61027a366004611df0565b610577565b005b6101ba7f000000000000000000000000000000000000000000000000000000000000000081565b6102106102b6366004611e64565b6107b6565b610210610837565b6102106102d1366004611ee1565b610848565b6102106102e4366004611f86565b6108d0565b6102106102f7366004611fa8565b6108f5565b6101ba7f000000000000000000000000000000000000000000000000000000000000000081565b61034a7f000000000000000000000000000000000000000000000000000000000000000081565b60405160ff90911681526020016101ce565b61034a600a81565b61027f61037236600461204a565b61092f565b610210610385366004612129565b610c29565b61021061039836600461218a565b610c69565b6102106103ab366004612238565b610d37565b6101ba7f000000000000000000000000000000000000000000000000000000000000000081565b6104136103e5366004611cab565b6006602052600090815260409020805460018201546002909201546001600160a01b03918216928216911683565b604080516001600160a01b03948516815292841660208401529216918101919091526060016101ce565b6007546104599064ffffffffff80821691600160281b90041682565b6040805164ffffffffff9384168152929091166020830152016101ce565b610210610485366004611cab565b610d71565b610210610498366004612290565b610d88565b6102107f000000000000000000000000000000000000000000000000000000000000000081565b6104d76104d2366004611fa8565b610dc2565b6040516101ce939291906122e8565b6040805160608101825260008082526020820181905291810191909152600554821061052c5760405163a86ecdd560e01b81526004810183905260240160405180910390fd5b50600090815260066020908152604091829020825160608101845281546001600160a01b03908116825260018301548116938201939093526002909101549091169181019190915290565b6007547f0000000000000000000000000000000000000000000000000000000000000000600160281b90910464ffffffffff16106105c85760405163b984588b60e01b815260040160405180910390fd5b6105da83600001518460200151610e6a565b6105f7576040516379fae7af60e01b815260040160405180910390fd5b60405163125c7dfb60e11b81526001600160a01b037f000000000000000000000000000000000000000000000000000000000000000016906324b8fbf6906106459033908690600401612358565b600060405180830381600087803b15801561065f57600080fd5b505af1158015610673573d6000803e3d6000fd5b505060405163b36543a960e01b8152600092506001600160a01b037f000000000000000000000000000000000000000000000000000000000000000016915063b36543a9906106c89033908690600401612358565b602060405180830381865afa1580156106e5573d6000803e3d6000fd5b505050506040513d601f19601f82011682018060405250810190610709919061239a565b905060004290506000610735604051806060016040528088815260200185815260200184815250610c29565b9050610742600782610f14565b602086015186516007547fd3c3cd829e4e37d5baaf10abace26b24e0046e20500c999380410f807edfcda09061078890600190600160281b900464ffffffffff166123c9565b6040805164ffffffffff909216825260208201889052810186905260600160405180910390a3505050505050565b60405163248f667760e01b815260009073__$ce9c2c925f157047e54fa833ec4e61409f$__9063248f6677906107f09085906004016123ee565b602060405180830381865af415801561080d573d6000803e3d6000fd5b505050506040513d601f19601f82011682018060405250810190610831919061239a565b92915050565b60006108436007611064565b905090565b60006000805160206126ff83398151915260028360405160200161086c919061241f565b60408051601f198184030181529082905261088691612455565b602060405180830381855afa1580156108a3573d6000803e3d6000fd5b5050506040513d601f19601f820116820180604052508101906108c6919061239a565b6108319190612487565b60006108da611c1a565b838152602081018390526108ed816108f5565b949350505050565b6040516314d2f97b60e11b815260009073__$6574937f64fc1d7710ec0e28b7a36713bb$__906329a5f2f6906107f09085906004016124bf565b60058054600181019091558451602086015161094b9190610e6a565b610968576040516379fae7af60e01b815260040160405180910390fd5b606086015160ff1660006001600160a01b037f0000000000000000000000000000000000000000000000000000000000000000166370f7b3618a8a8a30866109b160018a6124e7565b600581106109c1576109c16124a9565b01546040518663ffffffff1660e01b81526004016109e39594939291906124fa565b6020604051808303816000875af1158015610a02573d6000803e3d6000fd5b505050506040513d601f19601f82011682018060405250810190610a26919061256b565b905060007f00000000000000000000000000000000000000000000000000000000000000006001600160a01b03166336344873888885338a6040518663ffffffff1660e01b8152600401610a7e9594939291906125aa565b6020604051808303816000875af1158015610a9d573d6000803e3d6000fd5b505050506040513d601f19601f82011682018060405250810190610ac1919061256b565b905060007f00000000000000000000000000000000000000000000000000000000000000006001600160a01b031663431a717589898686338c6040518763ffffffff1660e01b8152600401610b1b969594939291906125e9565b6020604051808303816000875af1158015610b3a573d6000803e3d6000fd5b505050506040513d601f19601f82011682018060405250810190610b5e919061256b565b604080516060810182526001600160a01b038087168252858116602080840191825282861684860190815260008c815260068352869020855181549086166001600160a01b03199182161782559351600182018054918716918616919091179055905160029091018054919094169216919091179091558c01518c51925193945090929091907f38b2d18bb65cc91d7b436014cf44c8298b13bee60cc18d9e8efec26d1df3189090610c13908a908c90612631565b60405180910390a3505050505050505050505050565b6000610c33611c38565b8251518152825160209081015181830152830151816002602002015260408301516060820152610c62816107b6565b9392505050565b6000610c73611c56565b8351518152835160209081015190820152835160409081015190820152835160609081015190820152835160809081015190820152610cb0611c56565b845160a001518152845160c001516020820152845160e00151604080830191909152855161010001516060830152855161012001516080808401919091528151908101909152610d2e9080610d0485610d37565b8152602001610d1284610d37565b81526020018660000151815260200186602001518152506107b6565b95945050505050565b604051630926f44b60e31b815260009073__$20527677031d76601747626a9845039fe4$__90634937a258906107f0908590600401612645565b60008160058110610d8157600080fd5b0154905081565b6040516304b98e1d60e31b815260009073__$dc01a9744591ab014bc46a3b7671cdaefb$__906325cc70e8906107f090859060040161266d565b610dca611c74565b60408051808201909152600080825260208201526000610de8611c8c565b84518152602080860151828201526040805180820182527f171e826ad4a870fd925e0bf0e87884e70e080879c2205ef10114f28a3b6f6dd781527f2bd407d897fbbca9f88adfd2d15252e69de8c1564eb4d3d27162e259172f1a1d8184015281519283019091528282529094509250610e618484610c69565b93959294505050565b6000806000805160206126ff833981519152848509905060006000805160206126ff833981519152848509905060006000805160206126ff833981519152826000805160206126ff83398151915285620292fc0908905060006000805160206126ff83398151915280846000805160206126ff83398151915287620292f809096001089050610f0882826000805160206126ff8339815191526110b4565b15979650505050505050565b8154600160281b900464ffffffffff16610f2f816001612695565b835464ffffffffff91909116600160281b0269ffffffffff0000000000199091161783558160005b81856001016000610f6884876110ef565b64ffffffffff168152602081019190915260400160002055600183161561105d576000610f9f82610f9a6001876123c9565b6110ef565b60408051808201825264ffffffffff8316600090815260018a01602090815290839020548252810186905290516314d2f97b60e11b815291925073__$6574937f64fc1d7710ec0e28b7a36713bb$__916329a5f2f691611001916004016124bf565b602060405180830381865af415801561101e573d6000803e3d6000fd5b505050506040513d601f19601f82011682018060405250810190611042919061239a565b647fffffffff600195861c1694909350919091019050610f57565b5050505050565b8054600090600160281b900464ffffffffff1660015b8164ffffffffff168160ff166001901b64ffffffffff1610156110a957806110a1816126b3565b91505061107a565b6108ed848383611114565b6000838381116110cb576110c883826126d2565b90505b82806110d9576110d9612471565b60006110e586846124e7565b0895945050505050565b60008161110a60ff851664ff00000000602087901b166123c9565b610c629190612695565b600060208260ff16111561113b57604051633e104c7760e01b815260040160405180910390fd5b8264ffffffffff1660000361115a57611153826111e0565b9050610c62565b60006111678360016126e5565b60ff166001600160401b0381111561118157611181611cc4565b6040519080825280602002602001820160405280156111aa578160200160208202803683370190505b5090506111b98585858461186d565b808360ff16815181106111ce576111ce6124a9565b60200260200101519150509392505050565b60008160ff1660000361121457507f0ef71f46e11a513c599eed9dd03576c33439bcfb1cee155316f90541e41649ba919050565b8160ff1660010361124657507f06928e817d2804a3713efd102bae900c9ab3e8e0b0c6c20f8613bd3b0423a891919050565b8160ff1660020361127857507f2a06fb0b739b402c34dc752d8417b9cd67b7f7cabe4b06b5d995053791fcede4919050565b8160ff166003036112aa57507f04265868d2e705f48d3ae49f7749e67a587dafdb569c1d7334675496046eaad6919050565b8160ff166004036112dc57507f08e4b5d410c8de929132c214ea600b5f252fa14aabb97ea67cda5bb4e0ebeec8919050565b8160ff1660050361130e57507f11dc55d21b17daf8e60253c2a43d519039ba968733cf7c9d5df6155939e1a6d8919050565b8160ff1660060361134057507f30553f8216db90854953edd47602897f897104d5b0d65a5ce000981c51da32e0919050565b8160ff1660070361137257507f0690bfb582c7502ff6d15d519740ecd73d652b7a14dc82bfd250613ee8e04076919050565b8160ff166008036113a457507f1ea63a974336db6c0423e719d3f0e11494266237dda3a40de3cb761044366359919050565b8160ff166009036113d657507f1e73f08f6e5e4bb9c2096cc4587526ebfd033c222f4a27e97119c867c36a0d3a919050565b8160ff16600a0361140857507f10f7b76489e9c36644736c33c600d1bcedd465fd0aff3027e67b02e13875272d919050565b8160ff16600b0361143a57507f05e0136534f74776d69646bd0bd94519e63af45734405f479382d8400514c1a6919050565b8160ff16600c0361146c57507f1f336d6d45d293180c75964e99a7599d44cac2ad447c202c3e1973b0322cf990919050565b8160ff16600d0361149e57507f2582b5cdefe032d75373f0ede9171406137e93e7d44405a0b0a409c1c7391380919050565b8160ff16600e036114d057507f2ec047dd616221873c234f36461080c3e760644bb519ebdb49eb9645215e0edc919050565b8160ff16600f0361150257507f128fb9ad5b2d8e694bec0888ff95609c15b2a96ae80a34946c953dc503e46fb6919050565b8160ff1660100361153457507f199cd1f5b757c285023767abbe9bbb318da4e1fd375b5a001b54a0f3901ea7d3919050565b8160ff1660110361156657507f2b8342160822355808db759147a7d6f61de451bd5bb88f9db2eb406ea68b8138919050565b8160ff1660120361159857507f1874217e8e1dbc51c571a2db1103bf47c3e66a59305ca48bbcee6ad1c8cc5751919050565b8160ff166013036115ca57507f2c849a73ab21c9e88e1d711f221863e2a94eb58f3eb42dde575301451f3ec5c8919050565b8160ff166014036115fc57507f1713f3e3dc5e2393bd31ccc0cdd8601bdee3198cf34d566bb60cfab13e5a0873919050565b8160ff1660150361162e57507f2ce2c1fb109ad6574570826774ecfca3e04866bb5a3963962b873646db6641f3919050565b8160ff1660160361166057507f2560496c1138c827f1efb407d0cdb9d6ec9539b0957dfb67de2776e6026d630f919050565b8160ff1660170361169257507f1d71ada9e49baeb4a2cf26be37d3bc680554995ef6706105e93978ba71cacf94919050565b8160ff166018036116c457507f19b336a1e0a933e2a8f97d97322dcee843a2d9a2401bece52a3a25ddd5bb6bc9919050565b8160ff166019036116f657507f1b6367322bac9f24889900d310e2feaa0021516fac77470aea078e89335d3fcf919050565b8160ff16601a0361172857507f24cb019b59431c232413f66b041923214f7a8a7489caa05b66860f1c3c76d3b1919050565b8160ff16601b0361175a57507f132e4ff3e4ba890f1610efd4d2f69700b825514d557b82663878a56e2acef41c919050565b8160ff16601c0361178c57507f0845dd838ca63b2f68775aac8513bd692d26f511698206f3c6ce2b4100dd8d8f919050565b8160ff16601d036117be57507f14b46e659dc4072fc64a18d44911c4a303b45f1296c3cb7dec77f269bee9b5df919050565b8160ff16601e036117f057507f2b59c2651b412c029efa38f835ac1b1b5bdaf89dcb2e4bc9219e7d77c65e776a919050565b8160ff16601f0361182257507f216b9fa3ac3724cf1ec6caf5a66dd85cae3aee727e00d2a0a59f273df3401f10919050565b8160ff1660200361185457507f1d90601a0c76d2f39824f6dc198fb3b48cbd0231516c8f6208e56ea741c341f9919050565b6040516310a2ea0560e21b815260040160405180910390fd5b60208260ff16111561189257604051633e104c7760e01b815260040160405180910390fd5b8264ffffffffff166000036118ba5760405163bb5e95dd60e01b815260040160405180910390fd5b60006118c76001856123c9565b90506001811660000361191f578460010160006118e56000846110ef565b64ffffffffff168152602001908152602001600020548260008151811061190e5761190e6124a9565b602002602001018181525050611949565b61192960006111e0565b8260008151811061193c5761193c6124a9565b6020026020010181815250505b60005b8360ff168160ff161015611c125760018216600003611a455773__$6574937f64fc1d7710ec0e28b7a36713bb$__6329a5f2f66040518060400160405280868560ff168151811061199f5761199f6124a9565b602002602001015181526020016119b5856111e0565b8152506040518263ffffffff1660e01b81526004016119d491906124bf565b602060405180830381865af41580156119f1573d6000803e3d6000fd5b505050506040513d601f19601f82011682018060405250810190611a15919061239a565b83611a218360016126e5565b60ff1681518110611a3457611a346124a9565b602002602001018181525050611bff565b6000611a528260016126e5565b60ff168664ffffffffff16901c64ffffffffff16905060018364ffffffffff16901c64ffffffffff16811115611af7576000876001016000611aab856001611a9a91906126e5565b60018864ffffffffff16901c6110ef565b64ffffffffff1681526020019081526020016000205490508085846001611ad291906126e5565b60ff1681518110611ae557611ae56124a9565b60200260200101818152505050611bfd565b6000876001016000611b1085600188610f9a91906123c9565b64ffffffffff16815260200190815260200160002054905073__$6574937f64fc1d7710ec0e28b7a36713bb$__6329a5f2f66040518060400160405280848152602001888760ff1681518110611b6857611b686124a9565b60200260200101518152506040518263ffffffff1660e01b8152600401611b8f91906124bf565b602060405180830381865af4158015611bac573d6000803e3d6000fd5b505050506040513d601f19601f82011682018060405250810190611bd0919061239a565b85611bdc8560016126e5565b60ff1681518110611bef57611bef6124a9565b602002602001018181525050505b505b647fffffffff600192831c16910161194c565b505050505050565b60405180604001604052806002906020820280368337509192915050565b60405180608001604052806004906020820280368337509192915050565b6040518060a001604052806005906020820280368337509192915050565b6040518060200160405280611c87611c8c565b905290565b604051806101400160405280600a906020820280368337509192915050565b600060208284031215611cbd57600080fd5b5035919050565b634e487b7160e01b600052604160045260246000fd5b60405161014081016001600160401b0381118282101715611cfd57611cfd611cc4565b60405290565b604051601f8201601f191681016001600160401b0381118282101715611d2b57611d2b611cc4565b604052919050565b600060408284031215611d4557600080fd5b604051604081018181106001600160401b0382111715611d6757611d67611cc4565b604052823581526020928301359281019290925250919050565b600082601f830112611d9257600080fd5b81356001600160401b03811115611dab57611dab611cc4565b611dbe601f8201601f1916602001611d03565b818152846020838601011115611dd357600080fd5b816020850160208301376000918101602001919091529392505050565b600080600060808486031215611e0557600080fd5b611e0f8585611d33565b925060408401356001600160401b0380821115611e2b57600080fd5b611e3787838801611d81565b93506060860135915080821115611e4d57600080fd5b50611e5a86828701611d81565b9150509250925092565b600060808284031215611e7657600080fd5b82601f830112611e8557600080fd5b604051608081018181106001600160401b0382111715611ea757611ea7611cc4565b604052806080840185811115611ebc57600080fd5b845b81811015611ed6578035835260209283019201611ebe565b509195945050505050565b60006020808385031215611ef457600080fd5b82356001600160401b0380821115611f0b57600080fd5b818501915085601f830112611f1f57600080fd5b813581811115611f3157611f31611cc4565b8060051b9150611f42848301611d03565b8181529183018401918481019088841115611f5c57600080fd5b938501935b83851015611f7a57843582529385019390850190611f61565b98975050505050505050565b60008060408385031215611f9957600080fd5b50508035926020909101359150565b600060408284031215611fba57600080fd5b82601f830112611fc957600080fd5b604051604081018181106001600160401b0382111715611feb57611feb611cc4565b8060405250806040840185811115611ebc57600080fd5b803560ff8116811461201357600080fd5b919050565b6001600160a01b038116811461202d57600080fd5b50565b803561201381612018565b80356002811061201357600080fd5b60008060008060008086880361014081121561206557600080fd5b873596506080601f198201121561207b57600080fd5b50604051608081018181106001600160401b038211171561209e5761209e611cc4565b6040526120ad60208901612002565b81526120bb60408901612002565b60208201526120cc60608901612002565b60408201526120dd60808901612002565b606082015294506120f18860a08901611d33565b93506120ff60e08801612030565b925061210e6101008801612030565b915061211d610120880161203b565b90509295509295509295565b60006080828403121561213b57600080fd5b604051606081018181106001600160401b038211171561215d5761215d611cc4565b60405261216a8484611d33565b815260408301356020820152606083013560408201528091505092915050565b60008082840361018081121561219f57600080fd5b610140808212156121af57600080fd5b604051915060208083018381106001600160401b03821117156121d4576121d4611cc4565b604052601f860187136121e657600080fd5b6121ee611cda565b91860191808884111561220057600080fd5b875b848110156122195780358352918301918301612202565b5080855250505081935061222d8682611d33565b925050509250929050565b600060a0828403121561224a57600080fd5b82601f83011261225957600080fd5b60405160a081018181106001600160401b038211171561227b5761227b611cc4565b6040528060a0840185811115611ebc57600080fd5b6000606082840312156122a257600080fd5b82601f8301126122b157600080fd5b604051606081018181106001600160401b03821117156122d3576122d3611cc4565b604052806060840185811115611ebc57600080fd5b83516101a08201908260005b600a8110156123135782518252602092830192909101906001016122f4565b50508451610140840152506020909301516101608201526101800152919050565b60005b8381101561234f578181015183820152602001612337565b50506000910152565b60018060a01b03831681526040602082015260008251806040840152612385816060850160208701612334565b601f01601f1916919091016060019392505050565b6000602082840312156123ac57600080fd5b5051919050565b634e487b7160e01b600052601160045260246000fd5b64ffffffffff8281168282160390808211156123e7576123e76123b3565b5092915050565b60808101818360005b60048110156124165781518352602092830192909101906001016123f7565b50505092915050565b815160009082906020808601845b838110156124495781518552938201939082019060010161242d565b50929695505050505050565b60008251612467818460208701612334565b9190910192915050565b634e487b7160e01b600052601260045260246000fd5b6000826124a457634e487b7160e01b600052601260045260246000fd5b500690565b634e487b7160e01b600052603260045260246000fd5b60408101818360005b60028110156124165781518352602092830192909101906001016124c8565b81810381811115610831576108316123b3565b60006101208201905086825260ff865116602083015260ff602087015116604083015260ff604087015116606083015260ff606087015116608083015261254e60a083018680518252602090810151910152565b6001600160a01b039390931660e082015261010001529392505050565b60006020828403121561257d57600080fd5b8151610c6281612018565b600281106125a657634e487b7160e01b600052602160045260246000fd5b9052565b6001600160a01b038681168252858116602083015284811660408301528316606082015260a081016125df6080830184612588565b9695505050505050565b6001600160a01b0387811682528681166020830152858116604083015284811660608301528316608082015260c0810161262660a0830184612588565b979650505050505050565b82815260408101610c626020830184612588565b60a08101818360005b600581101561241657815183526020928301929091019060010161264e565b60608101818360005b6003811015612416578151835260209283019290910190600101612676565b64ffffffffff8181168382160190808211156123e7576123e76123b3565b600060ff821660ff81036126c9576126c96123b3565b60010192915050565b80820180821115610831576108316123b3565b60ff8181168382160190811115610831576108316123b356fe30644e72e131a029b85045b68181585d2833e84879b9709143e1f593f0000001a2646970667358221220f1536defd743e783ee42358ee8109fff1dca20ef597cdd52f3a08bf9874f624b64736f6c63430008140033",
  "linkReferences": {
    "contracts/crypto/PoseidonT3.sol": {
      "PoseidonT3": [
        {
          "length": 20,
          "start": 551
        },
        {
          "length": 20,
          "start": 712
        },
        {
          "length": 20,
          "start": 4190
        },
        {
          "length": 20,
          "start": 5938
        },
        {
          "length": 20,
          "start": 8382
        },
        {
          "length": 20,
          "start": 8833
        }
      ]
    },
    "contracts/crypto/PoseidonT4.sol": {
      "PoseidonT4": [
        {
          "length": 20,
          "start": 5361
        }
      ]
    },
    "contracts/crypto/PoseidonT5.sol": {
      "PoseidonT5": [
        {
          "length": 20,
          "start": 3871
        }
      ]
    },
    "contracts/crypto/PoseidonT6.sol": {
      "PoseidonT6": [
        {
          "length": 20,
          "start": 5280
        }
      ]
    }
  },
  "deployedLinkReferences": {
    "contracts/crypto/PoseidonT3.sol": {
      "PoseidonT3": [
        {
          "length": 20,
          "start": 2311
        },
        {
          "length": 20,
          "start": 4059
        },
        {
          "length": 20,
          "start": 6503
        },
        {
          "length": 20,
          "start": 6954
        }
      ]
    },
    "contracts/crypto/PoseidonT4.sol": {
      "PoseidonT4": [
        {
          "length": 20,
          "start": 3482
        }
      ]
    },
    "contracts/crypto/PoseidonT5.sol": {
      "PoseidonT5": [
        {
          "length": 20,
          "start": 1992
        }
      ]
    },
    "contracts/crypto/PoseidonT6.sol": {
      "PoseidonT6": [
        {
          "length": 20,
          "start": 3401
        }
      ]
    }
  }
}