{"abi":[{"type":"constructor","inputs":[{"name":"_verifier","type":"address","internalType":"contract ISemaphoreVerifier"},{"name":"_hatsExcubia","type":"address","internalType":"contract IExcubia"}],"stateMutability":"nonpayable"},{"type":"function","name":"acceptGroupAdmin","inputs":[{"name":"","type":"uint256","internalType":"uint256"}],"outputs":[],"stateMutability":"nonpayable"},{"type":"function","name":"addMember","inputs":[{"name":"","type":"uint256","internalType":"uint256"},{"name":"identityCommitment","type":"uint256","internalType":"uint256"}],"outputs":[],"stateMutability":"nonpayable"},{"type":"function","name":"addMembers","inputs":[{"name":"","type":"uint256","internalType":"uint256"},{"name":"","type":"uint256[]","internalType":"uint256[]"}],"outputs":[],"stateMutability":"nonpayable"},{"type":"function","name":"createGroup","inputs":[{"name":"","type":"address","internalType":"address"},{"name":"","type":"uint256","internalType":"uint256"}],"outputs":[{"name":"","type":"uint256","internalType":"uint256"}],"stateMutability":"pure"},{"type":"function","name":"createGroup","inputs":[],"outputs":[{"name":"","type":"uint256","internalType":"uint256"}],"stateMutability":"pure"},{"type":"function","name":"createGroup","inputs":[{"name":"","type":"address","internalType":"address"}],"outputs":[{"name":"","type":"uint256","internalType":"uint256"}],"stateMutability":"pure"},{"type":"function","name":"gateAndAddMember","inputs":[{"name":"identityCommitment","type":"uint256","internalType":"uint256"},{"name":"data","type":"bytes","internalType":"bytes"}],"outputs":[],"stateMutability":"nonpayable"},{"type":"function","name":"getGroupAdmin","inputs":[{"name":"groupId","type":"uint256","internalType":"uint256"}],"outputs":[{"name":"","type":"address","internalType":"address"}],"stateMutability":"view"},{"type":"function","name":"getMerkleTreeDepth","inputs":[{"name":"groupId","type":"uint256","internalType":"uint256"}],"outputs":[{"name":"","type":"uint256","internalType":"uint256"}],"stateMutability":"view"},{"type":"function","name":"getMerkleTreeRoot","inputs":[{"name":"groupId","type":"uint256","internalType":"uint256"}],"outputs":[{"name":"","type":"uint256","internalType":"uint256"}],"stateMutability":"view"},{"type":"function","name":"getMerkleTreeSize","inputs":[{"name":"groupId","type":"uint256","internalType":"uint256"}],"outputs":[{"name":"","type":"uint256","internalType":"uint256"}],"stateMutability":"view"},{"type":"function","name":"group","inputs":[],"outputs":[{"name":"merkleTreeDuration","type":"uint256","internalType":"uint256"}],"stateMutability":"view"},{"type":"function","name":"groupCounter","inputs":[],"outputs":[{"name":"","type":"uint256","internalType":"uint256"}],"stateMutability":"pure"},{"type":"function","name":"groupId","inputs":[],"outputs":[{"name":"","type":"uint256","internalType":"uint256"}],"stateMutability":"view"},{"type":"function","name":"hasMember","inputs":[{"name":"groupId","type":"uint256","internalType":"uint256"},{"name":"identityCommitment","type":"uint256","internalType":"uint256"}],"outputs":[{"name":"","type":"bool","internalType":"bool"}],"stateMutability":"view"},{"type":"function","name":"hatsExcubia","inputs":[],"outputs":[{"name":"","type":"address","internalType":"contract IExcubia"}],"stateMutability":"view"},{"type":"function","name":"indexOf","inputs":[{"name":"groupId","type":"uint256","internalType":"uint256"},{"name":"identityCommitment","type":"uint256","internalType":"uint256"}],"outputs":[{"name":"","type":"uint256","internalType":"uint256"}],"stateMutability":"view"},{"type":"function","name":"removeMember","inputs":[{"name":"","type":"uint256","internalType":"uint256"},{"name":"identityCommitment","type":"uint256","internalType":"uint256"},{"name":"merkleProofSiblings","type":"uint256[]","internalType":"uint256[]"}],"outputs":[],"stateMutability":"nonpayable"},{"type":"function","name":"updateGroupAdmin","inputs":[{"name":"","type":"uint256","internalType":"uint256"},{"name":"","type":"address","internalType":"address"}],"outputs":[],"stateMutability":"nonpayable"},{"type":"function","name":"updateGroupMerkleTreeDuration","inputs":[{"name":"","type":"uint256","internalType":"uint256"},{"name":"newMerkleTreeDuration","type":"uint256","internalType":"uint256"}],"outputs":[],"stateMutability":"nonpayable"},{"type":"function","name":"updateMember","inputs":[{"name":"","type":"uint256","internalType":"uint256"},{"name":"identityCommitment","type":"uint256","internalType":"uint256"},{"name":"newIdentityCommitment","type":"uint256","internalType":"uint256"},{"name":"merkleProofSiblings","type":"uint256[]","internalType":"uint256[]"}],"outputs":[],"stateMutability":"nonpayable"},{"type":"function","name":"validateProof","inputs":[{"name":"","type":"uint256","internalType":"uint256"},{"name":"proof","type":"tuple","internalType":"struct ISemaphore.SemaphoreProof","components":[{"name":"merkleTreeDepth","type":"uint256","internalType":"uint256"},{"name":"merkleTreeRoot","type":"uint256","internalType":"uint256"},{"name":"nullifier","type":"uint256","internalType":"uint256"},{"name":"message","type":"uint256","internalType":"uint256"},{"name":"scope","type":"uint256","internalType":"uint256"},{"name":"points","type":"uint256[8]","internalType":"uint256[8]"}]}],"outputs":[],"stateMutability":"nonpayable"},{"type":"function","name":"verifier","inputs":[],"outputs":[{"name":"","type":"address","internalType":"contract ISemaphoreVerifier"}],"stateMutability":"view"},{"type":"function","name":"verifyProof","inputs":[{"name":"","type":"uint256","internalType":"uint256"},{"name":"proof","type":"tuple","internalType":"struct ISemaphore.SemaphoreProof","components":[{"name":"merkleTreeDepth","type":"uint256","internalType":"uint256"},{"name":"merkleTreeRoot","type":"uint256","internalType":"uint256"},{"name":"nullifier","type":"uint256","internalType":"uint256"},{"name":"message","type":"uint256","internalType":"uint256"},{"name":"scope","type":"uint256","internalType":"uint256"},{"name":"points","type":"uint256[8]","internalType":"uint256[8]"}]}],"outputs":[{"name":"","type":"bool","internalType":"bool"}],"stateMutability":"view"},{"type":"event","name":"GroupAdminPending","inputs":[{"name":"groupId","type":"uint256","indexed":true,"internalType":"uint256"},{"name":"oldAdmin","type":"address","indexed":true,"internalType":"address"},{"name":"newAdmin","type":"address","indexed":true,"internalType":"address"}],"anonymous":false},{"type":"event","name":"GroupAdminUpdated","inputs":[{"name":"groupId","type":"uint256","indexed":true,"internalType":"uint256"},{"name":"oldAdmin","type":"address","indexed":true,"internalType":"address"},{"name":"newAdmin","type":"address","indexed":true,"internalType":"address"}],"anonymous":false},{"type":"event","name":"GroupCreated","inputs":[{"name":"groupId","type":"uint256","indexed":true,"internalType":"uint256"}],"anonymous":false},{"type":"event","name":"GroupMerkleTreeDurationUpdated","inputs":[{"name":"groupId","type":"uint256","indexed":true,"internalType":"uint256"},{"name":"oldMerkleTreeDuration","type":"uint256","indexed":false,"internalType":"uint256"},{"name":"newMerkleTreeDuration","type":"uint256","indexed":false,"internalType":"uint256"}],"anonymous":false},{"type":"event","name":"MemberAdded","inputs":[{"name":"groupId","type":"uint256","indexed":true,"internalType":"uint256"},{"name":"index","type":"uint256","indexed":false,"internalType":"uint256"},{"name":"identityCommitment","type":"uint256","indexed":false,"internalType":"uint256"},{"name":"merkleTreeRoot","type":"uint256","indexed":false,"internalType":"uint256"}],"anonymous":false},{"type":"event","name":"MemberRemoved","inputs":[{"name":"groupId","type":"uint256","indexed":true,"internalType":"uint256"},{"name":"index","type":"uint256","indexed":false,"internalType":"uint256"},{"name":"identityCommitment","type":"uint256","indexed":false,"internalType":"uint256"},{"name":"merkleTreeRoot","type":"uint256","indexed":false,"internalType":"uint256"}],"anonymous":false},{"type":"event","name":"MemberUpdated","inputs":[{"name":"groupId","type":"uint256","indexed":true,"internalType":"uint256"},{"name":"index","type":"uint256","indexed":false,"internalType":"uint256"},{"name":"identityCommitment","type":"uint256","indexed":false,"internalType":"uint256"},{"name":"newIdentityCommitment","type":"uint256","indexed":false,"internalType":"uint256"},{"name":"merkleTreeRoot","type":"uint256","indexed":false,"internalType":"uint256"}],"anonymous":false},{"type":"event","name":"MembersAdded","inputs":[{"name":"groupId","type":"uint256","indexed":true,"internalType":"uint256"},{"name":"startIndex","type":"uint256","indexed":false,"internalType":"uint256"},{"name":"identityCommitments","type":"uint256[]","indexed":false,"internalType":"uint256[]"},{"name":"merkleTreeRoot","type":"uint256","indexed":false,"internalType":"uint256"}],"anonymous":false},{"type":"event","name":"ProofValidated","inputs":[{"name":"groupId","type":"uint256","indexed":true,"internalType":"uint256"},{"name":"merkleTreeDepth","type":"uint256","indexed":false,"internalType":"uint256"},{"name":"merkleTreeRoot","type":"uint256","indexed":true,"internalType":"uint256"},{"name":"nullifier","type":"uint256","indexed":false,"internalType":"uint256"},{"name":"message","type":"uint256","indexed":false,"internalType":"uint256"},{"name":"scope","type":"uint256","indexed":true,"internalType":"uint256"},{"name":"points","type":"uint256[8]","indexed":false,"internalType":"uint256[8]"}],"anonymous":false},{"type":"error","name":"LeafAlreadyExists","inputs":[]},{"type":"error","name":"LeafCannotBeZero","inputs":[]},{"type":"error","name":"LeafDoesNotExist","inputs":[]},{"type":"error","name":"LeafGreaterThanSnarkScalarField","inputs":[]},{"type":"error","name":"Semaphore__CallerIsNotTheGroupAdmin","inputs":[]},{"type":"error","name":"Semaphore__CallerIsNotThePendingGroupAdmin","inputs":[]},{"type":"error","name":"Semaphore__GroupDoesNotExist","inputs":[]},{"type":"error","name":"Semaphore__GroupHasNoMembers","inputs":[]},{"type":"error","name":"Semaphore__InvalidProof","inputs":[]},{"type":"error","name":"Semaphore__MerkleTreeDepthIsNotSupported","inputs":[]},{"type":"error","name":"Semaphore__MerkleTreeRootIsExpired","inputs":[]},{"type":"error","name":"Semaphore__MerkleTreeRootIsNotPartOfTheGroup","inputs":[]},{"type":"error","name":"Semaphore__YouAreUsingTheSameNullifierTwice","inputs":[]},{"type":"error","name":"WrongSiblingNodes","inputs":[]}],"bytecode":{"object":"0x608060405260016005553480156200001657600080fd5b50604051620018c1380380620018c1833981016040819052620000399162000123565b60055462000048903362000080565b610e10600655600480546001600160a01b039384166001600160a01b0319918216179091556003805492909316911617905562000162565b60008281526001602052604080822080546001600160a01b0319166001600160a01b0385161790555183917ff0adfb94eab6daf835deb69c5738fe636150c3dfd08094a76f39b963dc8cb05a91a26040516001600160a01b0382169060009084907f0ba83579a0e79193ef649b9f5a8759d35af086ba62a3e207b52e4a8ae30d49e3908390a45050565b6001600160a01b03811681146200012057600080fd5b50565b600080604083850312156200013757600080fd5b825162000144816200010a565b602084015190925062000157816200010a565b809150509250929050565b61174f80620001726000396000f3fe608060405234801561001057600080fd5b50600436106101585760003560e01c80636aa11902116100c3578063d0d898dd1161007c578063d0d898dd14610302578063d24924fe14610239578063d340b6d314610315578063da3cda5214610328578063dabc4d5114610339578063fcf0b6ec1461034c57600080fd5b80636aa11902146102775780636cdd32fe1461028a5780637ee35a0c1461029d57806390509d44146102bd578063a0f44c92146102d0578063a9961c94146102d957600080fd5b80634178c4d5116101155780634178c4d5146101f5578063456f418814610208578063568ee8261461022b578063575185ed146102395780635c3f3b60146102405780636389e1071461025457600080fd5b8063042453711461015d57806306dd8485146101725780631783efc31461019857806329e7ef2d146101aa5780632b7ac3f3146101b45780632c880363146101df575b600080fd5b61017061016b366004611166565b505050565b005b6101856101803660046111b2565b61035f565b6040519081526020015b60405180910390f35b6101706101a63660046111b2565b5050565b6006546101859081565b6004546101c7906001600160a01b031681565b6040516001600160a01b03909116815260200161018f565b6101856101ed3660046111f0565b600192915050565b61017061020336600461121a565b610380565b61021b61021636600461127b565b6103aa565b604051901515815260200161018f565b6101706101a63660046112b5565b6001610185565b61018561024e3660046112e1565b50600190565b6101856102623660046112fc565b60009081526020819052604090206001015490565b610170610285366004611315565b610607565b610170610298366004611391565b61068f565b6101856102ab3660046112fc565b60009081526020819052604090205490565b61021b6102cb3660046111b2565b6106b7565b61018560055481565b6101c76102e73660046112fc565b6000908152600160205260409020546001600160a01b031690565b61017061031036600461127b565b6106d9565b6003546101c7906001600160a01b031681565b6101706103363660046112fc565b50565b6101856103473660046112fc565b6107ab565b61017061035a3660046111b2565b6107cf565b60008281526020819052604081206103779083610853565b90505b92915050565b6000610391600554868686866108a0565b6000908152600760205260409020429055505050505050565b6005546000818152600160205260408120549091906001600160a01b03166103e55760405163029f057960e01b815260040160405180910390fd5b6001833510806103f6575060208335115b156104145760405163767b278960e11b815260040160405180910390fd5b600554600090815260208190526040812054908190036104475760405163c8b02e0160e01b815260040160405180910390fd5b60006104546005546107ab565b9050808560200135146104c857602080860135600090815260079091526040812054600654909182900361049b576040516326994ac360e11b815260040160405180910390fd5b6104a581836113fa565b4211156104c5576040516309581a9960e41b815260040160405180910390fd5b50505b60045460408051808201825260a0880135815260c088013560208083019190915282516080808201855260e08b01358286019081526101008c0135606080850191909152908352855180870187526101208d013581526101408d01358186015283850152855180870187526101608d013581526101808d01358186015286519283018752848d013583528c870135948301949094526001600160a01b039096169563a23f019995929392820190610581908d0135610967565b81526020016105938c60800135610967565b90526040516001600160e01b031960e087901b1681526105bc94939291908c359060040161146f565b602060405180830381865afa1580156105d9573d6000803e3d6000fd5b505050506040513d601f19601f820116820180604052508101906105fd9190611502565b9695505050505050565b6003546040516329a0366b60e11b81526001600160a01b03909116906353406cd69061063b9033908690869060040161152b565b600060405180830381600087803b15801561065557600080fd5b505af1158015610669573d6000803e3d6000fd5b5050505060006106788461099e565b600090815260076020526040902042905550505050565b600061069f600554858585610a0a565b60009081526007602052604090204290555050505050565b6000828152602081815260408083208484526003019091528120541515610377565b60408082013560009081526008602052205460ff161561070c5760405163041162bd60e31b815260040160405180910390fd5b610718600554826103aa565b6107355760405163012a9af160e61b815260040160405180910390fd5b60408082013560008181526008602090815290839020805460ff19166001179055600554925160808501359391850135927f0c32e14cfe81a05d371c248d22de6b7ae849e981b76a1f8842e7b6da73fc405a9161079f9187359160608901359060a08a019061156b565b60405180910390a45050565b6000818152602081815260408083206001810154845260020190915281205461037a565b6005546000818152600160205260409020546001600160a01b03163314610809576040516317737e4f60e31b815260040160405180910390fd5b600680549083905560055460408051838152602081018690527f264b2a8f6763c084235fe832ba903482b2ef1a521336881fc75b987c2dfd29c5910160405180910390a250505050565b6000818152600383016020526040812054810361088357604051631c811d5b60e21b815260040160405180910390fd5b600082815260038401602052604090205461037790600190611593565b60008581526001602052604081205486906001600160a01b031633146108d9576040516317737e4f60e31b815260040160405180910390fd5b60008781526020819052604081206108f19088610853565b600089815260208190526040902090915061090f9088888888610ac8565b60408051838152602081018a90529081018890526060810182905290935088907fea3588e4a2a0c93d6a0e69dfeaf7496f43ccccf02ad9ce0a5b7627cbca4b61b19060800160405180910390a2505095945050505050565b600060088260405160200161097e91815260200190565b60408051601f198184030181529190528051602090910120901c92915050565b60055460009081526020819052604081208054906109bc9084610f38565b6005546040805184815260208101879052908101839052919350907f19239b3f93cd10558aaf11423af70c77763bf54f52bcc75bfa74d4d13548cde99060600160405180910390a250919050565b60008481526001602052604081205485906001600160a01b03163314610a43576040516317737e4f60e31b815260040160405180910390fd5b6000868152602081905260408120610a5b9087610853565b6000888152602081905260409020909150610a7890878787611101565b604080518381526020810189905290810182905290935087907f3108849c053c77b8073a11256dffb5ffd5b55e93e105a355e1c9061db890d8719060600160405180910390a25050949350505050565b60006000805160206116fa8339815191528410610af8576040516361c0541760e11b815260040160405180910390fd5b6000858152600387016020526040902054610b2657604051631c811d5b60e21b815260040160405180910390fd5b600084815260038701602052604090205415610b55576040516312c50cad60e11b815260040160405180910390fd5b6000610b618787610853565b875490915085908790600090610b7990600190611593565b60018b0154909150600090815b81811015610eaf578087901c600116600103610d39576000805160206116fa8339815191528a8a85818110610bbd57610bbd61140d565b9050602002013510610be2576040516361c0541760e11b815260040160405180910390fd5b73__$3df6530b668a25325f106f518886bbafa6$__63561558fe60405180604001604052808d8d88818110610c1957610c1961140d565b905060200201358152602001898152506040518263ffffffff1660e01b8152600401610c4591906115a6565b602060405180830381865af4158015610c62573d6000803e3d6000fd5b505050506040513d601f19601f82011682018060405250810190610c8691906115d7565b955073__$3df6530b668a25325f106f518886bbafa6$__63561558fe60405180604001604052808d8d88818110610cbf57610cbf61140d565b905060200201358152602001888152506040518263ffffffff1660e01b8152600401610ceb91906115a6565b602060405180830381865af4158015610d08573d6000803e3d6000fd5b505050506040513d601f19601f82011682018060405250810190610d2c91906115d7565b9450826001019250610ea7565b86811c84821c14610e93576000805160206116fa8339815191528a8a85818110610d6557610d6561140d565b9050602002013510610d8a576040516361c0541760e11b815260040160405180910390fd5b73__$3df6530b668a25325f106f518886bbafa6$__63561558fe60405180604001604052808981526020018d8d88818110610dc757610dc761140d565b905060200201358152506040518263ffffffff1660e01b8152600401610ded91906115a6565b602060405180830381865af4158015610e0a573d6000803e3d6000fd5b505050506040513d601f19601f82011682018060405250810190610e2e91906115d7565b955073__$3df6530b668a25325f106f518886bbafa6$__63561558fe60405180604001604052808881526020018d8d88818110610e6d57610e6d61140d565b905060200201358152506040518263ffffffff1660e01b8152600401610ceb91906115a6565b600083815260028e01602052604090208690555b600101610b86565b5060018c0154600090815260028d0160205260409020548414610ee557604051631fd4986360e11b815260040160405180910390fd5b600081815260028d01602052604090208590558915610f175760008b815260038d016020526040808220548c83529120555b505050600088815260038a0160205260408120555091505095945050505050565b60006000805160206116fa8339815191528210610f68576040516361c0541760e11b815260040160405180910390fd5b81600003610f89576040516314b48df160e11b815260040160405180910390fd5b600082815260038401602052604090205415610fb8576040516312c50cad60e11b815260040160405180910390fd5b825460018085015490610fcc9083906113fa565b610fd78260026116d4565b1015610fe957610fe6816116e0565b90505b600185018190558360005b828110156110c6578084901c6001166001036110aa57604080518082018252600083815260028a0160209081529083902054825281018490529051632b0aac7f60e11b815273__$3df6530b668a25325f106f518886bbafa6$__9163561558fe9161106291906004016115a6565b602060405180830381865af415801561107f573d6000803e3d6000fd5b505050506040513d601f19601f820116820180604052508101906110a391906115d7565b91506110be565b600081815260028801602052604090208290555b600101610ff4565b506110d0836116e0565b8087556000928352600287016020908152604080852084905596845260039097019096529390209390935550919050565b6000611111858560008686610ac8565b95945050505050565b60008083601f84011261112c57600080fd5b50813567ffffffffffffffff81111561114457600080fd5b6020830191508360208260051b850101111561115f57600080fd5b9250929050565b60008060006040848603121561117b57600080fd5b83359250602084013567ffffffffffffffff81111561119957600080fd5b6111a58682870161111a565b9497909650939450505050565b600080604083850312156111c557600080fd5b50508035926020909101359150565b80356001600160a01b03811681146111eb57600080fd5b919050565b6000806040838503121561120357600080fd5b61120c836111d4565b946020939093013593505050565b60008060008060006080868803121561123257600080fd5b853594506020860135935060408601359250606086013567ffffffffffffffff81111561125e57600080fd5b61126a8882890161111a565b969995985093965092949392505050565b6000808284036101c081121561129057600080fd5b833592506101a0601f19820112156112a757600080fd5b506020830190509250929050565b600080604083850312156112c857600080fd5b823591506112d8602084016111d4565b90509250929050565b6000602082840312156112f357600080fd5b610377826111d4565b60006020828403121561130e57600080fd5b5035919050565b60008060006040848603121561132a57600080fd5b83359250602084013567ffffffffffffffff8082111561134957600080fd5b818601915086601f83011261135d57600080fd5b81358181111561136c57600080fd5b87602082850101111561137e57600080fd5b6020830194508093505050509250925092565b600080600080606085870312156113a757600080fd5b8435935060208501359250604085013567ffffffffffffffff8111156113cc57600080fd5b6113d88782880161111a565b95989497509550505050565b634e487b7160e01b600052601160045260246000fd5b8082018082111561037a5761037a6113e4565b634e487b7160e01b600052603260045260246000fd5b8060005b6002811015611446578151845260209384019390910190600101611427565b50505050565b8060005b6004811015611446578151845260209384019390910190600101611450565b6101a0810161147e8288611423565b6040808301876000805b600280821061149757506114d1565b835185845b838110156114ba57825182526020928301929091019060010161149c565b505050938501935060209290920191600101611488565b50505050506114e360c0830186611423565b6114f161010083018561144c565b826101808301529695505050505050565b60006020828403121561151457600080fd5b8151801515811461152457600080fd5b9392505050565b6001600160a01b03841681526040602082018190528101829052818360608301376000818301606090810191909152601f909201601f1916010192915050565b8481526020810184905260408101839052610160810161010083606084013795945050505050565b8181038181111561037a5761037a6113e4565b60408101818360005b60028110156115ce5781518352602092830192909101906001016115af565b50505092915050565b6000602082840312156115e957600080fd5b5051919050565b600181815b8085111561162b578160001904821115611611576116116113e4565b8085161561161e57918102915b93841c93908002906115f5565b509250929050565b6000826116425750600161037a565b8161164f5750600061037a565b8160018114611665576002811461166f5761168b565b600191505061037a565b60ff841115611680576116806113e4565b50506001821b61037a565b5060208310610133831016604e8410600b84101617156116ae575081810a61037a565b6116b883836115f0565b80600019048211156116cc576116cc6113e4565b029392505050565b60006103778383611633565b6000600182016116f2576116f26113e4565b506001019056fe30644e72e131a029b85045b68181585d2833e84879b9709143e1f593f0000001a26469706673582212209ffe4f77b204765a7e5f085efc142f288dee026f93daa10562736cd9405ddb8864736f6c63430008170033","linkReferences":{"node_modules/poseidon-solidity/PoseidonT3.sol":{"PoseidonT3":[{"start":3414,"length":20},{"start":3580,"length":20},{"start":3838,"length":20},{"start":4004,"length":20},{"start":4525,"length":20}]}}},"methodIdentifiers":{"acceptGroupAdmin(uint256)":"da3cda52","addMember(uint256,uint256)":"1783efc3","addMembers(uint256,uint256[])":"04245371","createGroup()":"575185ed","createGroup(address)":"5c3f3b60","createGroup(address,uint256)":"2c880363","gateAndAddMember(uint256,bytes)":"6aa11902","getGroupAdmin(uint256)":"a9961c94","getMerkleTreeDepth(uint256)":"6389e107","getMerkleTreeRoot(uint256)":"dabc4d51","getMerkleTreeSize(uint256)":"7ee35a0c","group()":"29e7ef2d","groupCounter()":"d24924fe","groupId()":"a0f44c92","hasMember(uint256,uint256)":"90509d44","hatsExcubia()":"d340b6d3","indexOf(uint256,uint256)":"06dd8485","removeMember(uint256,uint256,uint256[])":"6cdd32fe","updateGroupAdmin(uint256,address)":"568ee826","updateGroupMerkleTreeDuration(uint256,uint256)":"fcf0b6ec","updateMember(uint256,uint256,uint256,uint256[])":"4178c4d5","validateProof(uint256,(uint256,uint256,uint256,uint256,uint256,uint256[8]))":"d0d898dd","verifier()":"2b7ac3f3","verifyProof(uint256,(uint256,uint256,uint256,uint256,uint256,uint256[8]))":"456f4188"},"id":40}